{
  "_format": "hh-sol-artifact-1",
  "contractName": "FunctionsConsumer",
  "sourceName": "contracts/FunctionsConsumer.sol",
  "abi": [
    {
      "inputs": [
        {
          "internalType": "address",
          "name": "oracle",
          "type": "address"
        }
      ],
      "stateMutability": "nonpayable",
      "type": "constructor"
    },
    {
      "inputs": [],
      "name": "EmptyArgs",
      "type": "error"
    },
    {
      "inputs": [],
      "name": "EmptySecrets",
      "type": "error"
    },
    {
      "inputs": [],
      "name": "EmptySource",
      "type": "error"
    },
    {
      "inputs": [],
      "name": "NoInlineSecrets",
      "type": "error"
    },
    {
      "inputs": [],
      "name": "RequestIsAlreadyPending",
      "type": "error"
    },
    {
      "inputs": [],
      "name": "RequestIsNotPending",
      "type": "error"
    },
    {
      "inputs": [],
      "name": "SenderIsNotRegistry",
      "type": "error"
    },
    {
      "anonymous": false,
      "inputs": [
        {
          "indexed": true,
          "internalType": "bytes32",
          "name": "requestId",
          "type": "bytes32"
        },
        {
          "indexed": false,
          "internalType": "bytes",
          "name": "result",
          "type": "bytes"
        },
        {
          "indexed": false,
          "internalType": "bytes",
          "name": "err",
          "type": "bytes"
        }
      ],
      "name": "OCRResponse",
      "type": "event"
    },
    {
      "anonymous": false,
      "inputs": [
        {
          "indexed": true,
          "internalType": "address",
          "name": "from",
          "type": "address"
        },
        {
          "indexed": true,
          "internalType": "address",
          "name": "to",
          "type": "address"
        }
      ],
      "name": "OwnershipTransferRequested",
      "type": "event"
    },
    {
      "anonymous": false,
      "inputs": [
        {
          "indexed": true,
          "internalType": "address",
          "name": "from",
          "type": "address"
        },
        {
          "indexed": true,
          "internalType": "address",
          "name": "to",
          "type": "address"
        }
      ],
      "name": "OwnershipTransferred",
      "type": "event"
    },
    {
      "anonymous": false,
      "inputs": [
        {
          "indexed": true,
          "internalType": "bytes32",
          "name": "id",
          "type": "bytes32"
        }
      ],
      "name": "RequestFulfilled",
      "type": "event"
    },
    {
      "anonymous": false,
      "inputs": [
        {
          "indexed": true,
          "internalType": "bytes32",
          "name": "id",
          "type": "bytes32"
        }
      ],
      "name": "RequestSent",
      "type": "event"
    },
    {
      "anonymous": false,
      "inputs": [
        {
          "indexed": false,
          "internalType": "string",
          "name": "adsId",
          "type": "string"
        },
        {
          "indexed": false,
          "internalType": "uint256",
          "name": "adsBudget",
          "type": "uint256"
        }
      ],
      "name": "w3adsCreated",
      "type": "event"
    },
    {
      "anonymous": false,
      "inputs": [
        {
          "indexed": false,
          "internalType": "address",
          "name": "contentCreator",
          "type": "address"
        },
        {
          "indexed": false,
          "internalType": "uint256",
          "name": "payment",
          "type": "uint256"
        },
        {
          "indexed": false,
          "internalType": "string",
          "name": "adsName",
          "type": "string"
        }
      ],
      "name": "w3adsPaid",
      "type": "event"
    },
    {
      "inputs": [],
      "name": "acceptOwnership",
      "outputs": [],
      "stateMutability": "nonpayable",
      "type": "function"
    },
    {
      "inputs": [
        {
          "internalType": "address",
          "name": "oracleAddress",
          "type": "address"
        },
        {
          "internalType": "bytes32",
          "name": "requestId",
          "type": "bytes32"
        }
      ],
      "name": "addSimulatedRequestId",
      "outputs": [],
      "stateMutability": "nonpayable",
      "type": "function"
    },
    {
      "inputs": [
        {
          "internalType": "string",
          "name": "",
          "type": "string"
        }
      ],
      "name": "adsWithBudget",
      "outputs": [
        {
          "internalType": "uint256",
          "name": "",
          "type": "uint256"
        }
      ],
      "stateMutability": "view",
      "type": "function"
    },
    {
      "inputs": [
        {
          "internalType": "string",
          "name": "adsId",
          "type": "string"
        },
        {
          "internalType": "uint256",
          "name": "adsBudget",
          "type": "uint256"
        }
      ],
      "name": "createAds",
      "outputs": [
        {
          "internalType": "string",
          "name": "",
          "type": "string"
        }
      ],
      "stateMutability": "payable",
      "type": "function"
    },
    {
      "inputs": [
        {
          "components": [
            {
              "internalType": "enum Functions.Location",
              "name": "codeLocation",
              "type": "uint8"
            },
            {
              "internalType": "enum Functions.Location",
              "name": "secretsLocation",
              "type": "uint8"
            },
            {
              "internalType": "enum Functions.CodeLanguage",
              "name": "language",
              "type": "uint8"
            },
            {
              "internalType": "string",
              "name": "source",
              "type": "string"
            },
            {
              "internalType": "bytes",
              "name": "secrets",
              "type": "bytes"
            },
            {
              "internalType": "string[]",
              "name": "args",
              "type": "string[]"
            }
          ],
          "internalType": "struct Functions.Request",
          "name": "req",
          "type": "tuple"
        },
        {
          "internalType": "uint64",
          "name": "subscriptionId",
          "type": "uint64"
        },
        {
          "internalType": "uint32",
          "name": "gasLimit",
          "type": "uint32"
        },
        {
          "internalType": "uint256",
          "name": "gasPrice",
          "type": "uint256"
        }
      ],
      "name": "estimateCost",
      "outputs": [
        {
          "internalType": "uint96",
          "name": "",
          "type": "uint96"
        }
      ],
      "stateMutability": "view",
      "type": "function"
    },
    {
      "inputs": [
        {
          "internalType": "string",
          "name": "source",
          "type": "string"
        },
        {
          "internalType": "bytes",
          "name": "secrets",
          "type": "bytes"
        },
        {
          "internalType": "string[]",
          "name": "args",
          "type": "string[]"
        },
        {
          "internalType": "uint64",
          "name": "subscriptionId",
          "type": "uint64"
        },
        {
          "internalType": "uint32",
          "name": "gasLimit",
          "type": "uint32"
        }
      ],
      "name": "executeRequest",
      "outputs": [
        {
          "internalType": "bytes32",
          "name": "",
          "type": "bytes32"
        }
      ],
      "stateMutability": "nonpayable",
      "type": "function"
    },
    {
      "inputs": [],
      "name": "getDONPublicKey",
      "outputs": [
        {
          "internalType": "bytes",
          "name": "",
          "type": "bytes"
        }
      ],
      "stateMutability": "view",
      "type": "function"
    },
    {
      "inputs": [
        {
          "internalType": "bytes32",
          "name": "requestId",
          "type": "bytes32"
        },
        {
          "internalType": "bytes",
          "name": "response",
          "type": "bytes"
        },
        {
          "internalType": "bytes",
          "name": "err",
          "type": "bytes"
        }
      ],
      "name": "handleOracleFulfillment",
      "outputs": [],
      "stateMutability": "nonpayable",
      "type": "function"
    },
    {
      "inputs": [],
      "name": "latestAdsCreatorPaid",
      "outputs": [
        {
          "internalType": "address",
          "name": "",
          "type": "address"
        }
      ],
      "stateMutability": "view",
      "type": "function"
    },
    {
      "inputs": [],
      "name": "latestAdsPaid",
      "outputs": [
        {
          "internalType": "string",
          "name": "",
          "type": "string"
        }
      ],
      "stateMutability": "view",
      "type": "function"
    },
    {
      "inputs": [],
      "name": "latestError",
      "outputs": [
        {
          "internalType": "bytes",
          "name": "",
          "type": "bytes"
        }
      ],
      "stateMutability": "view",
      "type": "function"
    },
    {
      "inputs": [],
      "name": "latestRequestId",
      "outputs": [
        {
          "internalType": "bytes32",
          "name": "",
          "type": "bytes32"
        }
      ],
      "stateMutability": "view",
      "type": "function"
    },
    {
      "inputs": [],
      "name": "latestResponse",
      "outputs": [
        {
          "internalType": "bytes",
          "name": "",
          "type": "bytes"
        }
      ],
      "stateMutability": "view",
      "type": "function"
    },
    {
      "inputs": [],
      "name": "owner",
      "outputs": [
        {
          "internalType": "address",
          "name": "",
          "type": "address"
        }
      ],
      "stateMutability": "view",
      "type": "function"
    },
    {
      "inputs": [
        {
          "internalType": "address",
          "name": "to",
          "type": "address"
        }
      ],
      "name": "transferOwnership",
      "outputs": [],
      "stateMutability": "nonpayable",
      "type": "function"
    },
    {
      "inputs": [
        {
          "internalType": "address",
          "name": "oracle",
          "type": "address"
        }
      ],
      "name": "updateOracleAddress",
      "outputs": [],
      "stateMutability": "nonpayable",
      "type": "function"
    }
  ],
  "bytecode": "0x60806040523480156200001157600080fd5b5060405162002a9838038062002a98833981016040819052620000349162000199565b600080546001600160a01b0319166001600160a01b038316178155339081906001600160a01b038216620000af5760405162461bcd60e51b815260206004820152601860248201527f43616e6e6f7420736574206f776e657220746f207a65726f000000000000000060448201526064015b60405180910390fd5b600280546001600160a01b0319166001600160a01b0384811691909117909155811615620000e257620000e281620000ec565b50505050620001cb565b6001600160a01b038116331415620001475760405162461bcd60e51b815260206004820152601760248201527f43616e6e6f74207472616e7366657220746f2073656c660000000000000000006044820152606401620000a6565b600380546001600160a01b0319166001600160a01b03838116918217909255600254604051919216907fed8889f560326eb138920d842192f0eb3dd22b4f139c87a2c57538e05bae127890600090a350565b600060208284031215620001ac57600080fd5b81516001600160a01b0381168114620001c457600080fd5b9392505050565b6128bd80620001db6000396000f3fe6080604052600436106100f35760003560e01c80638da5cb5b1161008a578063f2fde38b11610059578063f2fde38b146102ad578063f425c72e146102cd578063f7023bb6146102e2578063fffeb84e1461030257600080fd5b80638da5cb5b14610228578063bef3a2f014610246578063d328a91e1461025b578063d4b391751461027057600080fd5b806341152c9f116100c657806341152c9f146101835780634f80c4af146101a35780636cd06e0d146101db57806379ba50971461021357600080fd5b80630ca76175146100f85780631aa46f591461011a578063277145891461014357806330bda99d14610163575b600080fd5b34801561010457600080fd5b50610118610113366004612041565b610317565b005b34801561012657600080fd5b5061013060045481565b6040519081526020015b60405180910390f35b34801561014f57600080fd5b5061013061015e366004612125565b6103bd565b34801561016f57600080fd5b5061011861017e366004611ffc565b6104cb565b610196610191366004612245565b6104e1565b60405161013a919061243a565b3480156101af57600080fd5b506101306101be366004612210565b805160208183018101805160078252928201919093012091525481565b3480156101e757600080fd5b506009546101fb906001600160a01b031681565b6040516001600160a01b03909116815260200161013a565b34801561021f57600080fd5b50610118610548565b34801561023457600080fd5b506002546001600160a01b03166101fb565b34801561025257600080fd5b50610196610602565b34801561026757600080fd5b50610196610690565b34801561027c57600080fd5b5061029061028b36600461228a565b61072e565b6040516bffffffffffffffffffffffff909116815260200161013a565b3480156102b957600080fd5b506101186102c8366004611fc2565b6107c6565b3480156102d957600080fd5b506101966107da565b3480156102ee57600080fd5b506101186102fd366004611fc2565b6107e7565b34801561030e57600080fd5b5061019661080d565b60008381526001602052604090205483906001600160a01b03163314610369576040517fa0c5ec6300000000000000000000000000000000000000000000000000000000815260040160405180910390fd5b60008181526001602052604080822080546001600160a01b03191690555182917f85e1543bf2f84fe80c6badbce3648c8539ad1df4d2b3d822938ca0538be727e691a26103b784848461081a565b50505050565b60006103c7610bcb565b6104016040805160c08101909152806000815260200160008152602001600081526020016060815260200160608152602001606081525090565b6104486000808c8c8080601f01602080910402602001604051908101604052809392919081815260200183838082843760009201919091525087959493925050610c279050565b86156104905761049088888080601f0160208091040260200160405190810160405280939291908181526020018383808284376000920191909152508593925050610cbb9050565b84156104aa576104aa6104a38688612769565b8290610d02565b60006104b7828686610d42565b60048190559b9a5050505050505050505050565b6104d3610bcb565b6104dd8282610eb4565b5050565b6060816007846040516104f491906123f6565b9081526020016040518091039020819055507f91f25a85ef78ce5516e5bc7445a65311dc559aa954480dd6c56862c46af34b4b8383604051610537929190612472565b60405180910390a150815b92915050565b6003546001600160a01b031633146105a75760405162461bcd60e51b815260206004820152601660248201527f4d7573742062652070726f706f736564206f776e65720000000000000000000060448201526064015b60405180910390fd5b600280546001600160a01b0319808216339081179093556003805490911690556040516001600160a01b03909116919082907f8be0079c531659141344cd1fd0a4f28419497f9722a3daafe3b4186f6b6457e090600090a350565b6005805461060f906127a2565b80601f016020809104026020016040519081016040528092919081815260200182805461063b906127a2565b80156106885780601f1061065d57610100808354040283529160200191610688565b820191906000526020600020905b81548152906001019060200180831161066b57829003601f168201915b505050505081565b60008054604080517fd328a91e00000000000000000000000000000000000000000000000000000000815290516060936001600160a01b039093169263d328a91e9260048082019391829003018186803b1580156106ed57600080fd5b505afa158015610701573d6000803e3d6000fd5b505050506040513d6000823e601f3d908101601f1916820160405261072991908101906120ae565b905090565b600080546001600160a01b031663d227d2458561074a88610f34565b86866040518563ffffffff1660e01b815260040161076b94939291906124cd565b60206040518083038186803b15801561078357600080fd5b505afa158015610797573d6000803e3d6000fd5b505050506040513d601f19601f820116820180604052508101906107bb919061239c565b90505b949350505050565b6107ce610bcb565b6107d781611200565b50565b6008805461060f906127a2565b6107ef610bcb565b600080546001600160a01b0319166001600160a01b03831617905550565b6006805461060f906127a2565b815161082d906005906020850190611d5a565b508051610841906006906020840190611d5a565b508160006108768260408051808201825260008082526020918201528151808301909252825182529182019181019190915290565b604080518082018252600181527f2c000000000000000000000000000000000000000000000000000000000000006020808301918252835180850185526000808252908201819052845180860190955292518452830152919250906108db83836112ab565b6108e69060016125b6565b67ffffffffffffffff8111156108fe576108fe61285c565b60405190808252806020026020018201604052801561093157816020015b606081526020019060019003908161091c5790505b50905060005b81518110156109825761095261094d858561134c565b61136b565b82828151811061096457610964612846565b6020026020010181905250808061097a906127dd565b915050610937565b506000806109a98360008151811061099c5761099c612846565b60200260200101516113d4565b915091506000836001815181106109c2576109c2612846565b6020026020010151905060006109f1856002815181106109e4576109e4612846565b60200260200101516114d3565b9050600084600784604051610a0691906123f6565b908152602001604051809103902054610a1f919061272f565b1015610a935760405162461bcd60e51b815260206004820152602c60248201527f43616e27742070617920746f2063726561746f722e416473206275646765742060448201527f697320636f6d706c657465640000000000000000000000000000000000000000606482015260840161059e565b6040516001600160a01b0382169085156108fc029086906000818181858888f19350505050158015610ac9573d6000803e3d6000fd5b5083600783604051610adb91906123f6565b908152602001604051809103902054610af4919061272f565b600783604051610b0491906123f6565b9081526020016040518091039020819055508160089080519060200190610b2c929190611d5a565b50600980546001600160a01b0319166001600160a01b0383161790556040517fc1e8d8d59b0d53ed576c12e1d492ee9f64fb6f5eb256950080b41055e10d693f90610b7c90839087908690612412565b60405180910390a18a7f7bab0ec163b5c132c72b8146ac4d6e067e82ed58f8b131150aa71c92589115628b8b604051610bb692919061244d565b60405180910390a25050505050505050505050565b6002546001600160a01b03163314610c255760405162461bcd60e51b815260206004820152601660248201527f4f6e6c792063616c6c61626c65206279206f776e657200000000000000000000604482015260640161059e565b565b8051610c5f576040517f22ce3edd00000000000000000000000000000000000000000000000000000000815260040160405180910390fd5b83836001811115610c7257610c72612830565b90816001811115610c8557610c85612830565b90525060408401828015610c9b57610c9b612830565b90818015610cab57610cab612830565b9052506060909301929092525050565b8051610cf3576040517fe889636f00000000000000000000000000000000000000000000000000000000815260040160405180910390fd5b60016020830152608090910152565b8051610d3a576040517ffe936cb700000000000000000000000000000000000000000000000000000000815260040160405180910390fd5b60a090910152565b6000805481906001600160a01b03166328242b0485610d6088610f34565b866040518463ffffffff1660e01b8152600401610d7f93929190612494565b602060405180830381600087803b158015610d9957600080fd5b505af1158015610dad573d6000803e3d6000fd5b505050506040513d601f19601f82011682018060405250810190610dd19190612028565b905060008054906101000a90046001600160a01b03166001600160a01b0316635ab1bd536040518163ffffffff1660e01b815260040160206040518083038186803b158015610e1f57600080fd5b505afa158015610e33573d6000803e3d6000fd5b505050506040513d601f19601f82011682018060405250810190610e579190611fdf565b60008281526001602052604080822080546001600160a01b0319166001600160a01b039490941693909317909255905182917f1131472297a800fee664d1d89cfa8f7676ff07189ecc53f80bbb5f4969099db891a2949350505050565b60008181526001602052604090205481906001600160a01b031615610f05576040517f8b457ad200000000000000000000000000000000000000000000000000000000815260040160405180910390fd5b50600090815260016020526040902080546001600160a01b0319166001600160a01b0392909216919091179055565b6060610f3e611dde565b8051610f4c906101006116c0565b50610f8c816040518060400160405280600c81526020017f636f64654c6f636174696f6e0000000000000000000000000000000000000000815250611737565b610fab8184600001516001811115610fa657610fa6612830565b611755565b610fea816040518060400160405280600881526020017f6c616e6775616765000000000000000000000000000000000000000000000000815250611737565b6110048184604001516000811115610fa657610fa6612830565b611043816040518060400160405280600681526020017f736f757263650000000000000000000000000000000000000000000000000000815250611737565b611051818460600151611737565b60a083015151156110f75761109b816040518060400160405280600481526020017f6172677300000000000000000000000000000000000000000000000000000000815250611737565b6110a48161178e565b60005b8360a00151518110156110ed576110db828560a0015183815181106110ce576110ce612846565b6020026020010151611737565b806110e5816127dd565b9150506110a7565b506110f7816117b2565b608083015151156111f85760008360200151600181111561111a5761111a612830565b1415611152576040517fa80d31f700000000000000000000000000000000000000000000000000000000815260040160405180910390fd5b611191816040518060400160405280600f81526020017f736563726574734c6f636174696f6e0000000000000000000000000000000000815250611737565b6111ab8184602001516001811115610fa657610fa6612830565b6111ea816040518060400160405280600781526020017f7365637265747300000000000000000000000000000000000000000000000000815250611737565b6111f88184608001516117d0565b515192915050565b6001600160a01b0381163314156112595760405162461bcd60e51b815260206004820152601760248201527f43616e6e6f74207472616e7366657220746f2073656c66000000000000000000604482015260640161059e565b600380546001600160a01b0319166001600160a01b03838116918217909255600254604051919216907fed8889f560326eb138920d842192f0eb3dd22b4f139c87a2c57538e05bae127890600090a350565b60008082600001516112cf85600001518660200151866000015187602001516117dd565b6112d991906125b6565b90505b835160208501516112ed91906125b6565b811161134557816112fd816127dd565b9250508260000151611334856020015183611318919061272f565b8651611324919061272f565b83866000015187602001516117dd565b61133e91906125b6565b90506112dc565b5092915050565b60408051808201909152600080825260208201526113458383836118fe565b60606000826000015167ffffffffffffffff81111561138c5761138c61285c565b6040519080825280601f01601f1916602001820160405280156113b6576020820181803683370190505b509050600060208201905061134581856020015186600001516119aa565b60008060005b83518110156114c857600060308583815181106113f9576113f9612846565b016020015161140b919060f81c612746565b60ff16108061144257506009603085838151811061142b5761142b612846565b016020015161143d919060f81c612746565b60ff16115b156114535750600093849350915050565b6001818551611462919061272f565b61146c919061272f565b61147790600a612611565b603085838151811061148b5761148b612846565b016020015161149d919060f81c612746565b60ff166114aa91906126e8565b6114b490846125b6565b9250806114c0816127dd565b9150506113da565b509092600192509050565b60008181808060025b602a8110156116b5576114f1610100856126b9565b935084818151811061150557611505612846565b016020015160f81c92508461151b8260016125b6565b8151811061152b5761152b612846565b016020015160f81c915060616001600160a01b0384161080159061155957506066836001600160a01b031611155b1561157057611569605784612707565b92506115db565b6041836001600160a01b03161015801561159457506046836001600160a01b031611155b156115a457611569603784612707565b6030836001600160a01b0316101580156115c857506039836001600160a01b031611155b156115db576115d8603084612707565b92505b6061826001600160a01b0316101580156115ff57506066826001600160a01b031611155b156116165761160f605783612707565b9150611681565b6041826001600160a01b03161015801561163a57506046826001600160a01b031611155b1561164a5761160f603783612707565b6030826001600160a01b03161015801561166e57506039826001600160a01b031611155b156116815761167e603083612707565b91505b8161168d8460106126b9565b611697919061258b565b6116a1908561258b565b93506116ae6002826125b6565b90506114dc565b509195945050505050565b6040805180820190915260608152600060208201526116e06020836127f8565b15611708576116f06020836127f8565b6116fb90602061272f565b61170590836125b6565b91505b60208084018390526040518085526000815290818401018181101561172c57600080fd5b604052509192915050565b6117448260038351611a24565b81516117509082611b45565b505050565b81516117629060c2611b6d565b506104dd828260405160200161177a91815260200190565b6040516020818303038152906040526117d0565b611799816004611bd6565b6001816020018181516117ac91906125b6565b90525050565b6117bd816007611bd6565b6001816020018181516117ac919061272f565b6117448260028351611a24565b600083818685116118e95760208511611897576000851561182957600161180587602061272f565b6118109060086126e8565b61181b906002612611565b611825919061272f565b1990505b8451811660008761183a8b8b6125b6565b611844919061272f565b855190915083165b82811461188957818610611871576118648b8b6125b6565b96505050505050506107be565b8561187b816127dd565b96505083865116905061184c565b8596505050505050506107be565b508383206000905b6118a9868961272f565b82116118e757858320818114156118c657839450505050506107be565b6118d16001856125b6565b93505081806118df906127dd565b92505061189f565b505b6118f387876125b6565b979650505050505050565b6040805180820190915260008082526020820152600061193085600001518660200151866000015187602001516117dd565b60208087018051918601919091525190915061194c908261272f565b83528451602086015161195f91906125b6565b81141561196f57600085526119a1565b8351835161197d91906125b6565b8551869061198c90839061272f565b905250835161199b90826125b6565b60208601525b50909392505050565b602081106119e257815183526119c16020846125b6565b92506119ce6020836125b6565b91506119db60208261272f565b90506119aa565b6000198115611a115760016119f883602061272f565b611a0490610100612611565b611a0e919061272f565b90505b9151835183169219169190911790915250565b60178167ffffffffffffffff1611611a4b5782516103b79060e0600585901b168317611b6d565b60ff8167ffffffffffffffff1611611a8d578251611a74906018611fe0600586901b1617611b6d565b5082516103b79067ffffffffffffffff83166001611bed565b61ffff8167ffffffffffffffff1611611ad0578251611ab7906019611fe0600586901b1617611b6d565b5082516103b79067ffffffffffffffff83166002611bed565b63ffffffff8167ffffffffffffffff1611611b15578251611afc90601a611fe0600586901b1617611b6d565b5082516103b79067ffffffffffffffff83166004611bed565b8251611b2c90601b611fe0600586901b1617611b6d565b5082516103b79067ffffffffffffffff83166008611bed565b604080518082019091526060815260006020820152611b6683838451611c72565b9392505050565b6040805180820190915260608152600060208201528251516000611b928260016125b6565b905084602001518210611bb357611bb385611bae8360026126e8565b611d43565b8451602083820101858153508051821115611bcc578181525b5093949350505050565b815161175090601f611fe0600585901b1617611b6d565b6040805180820190915260608152600060208201528351516000611c1182856125b6565b90508560200151811115611c2e57611c2e86611bae8360026126e8565b60006001611c3e86610100612611565b611c48919061272f565b90508651828101878319825116178152508051831115611c66578281525b50959695505050505050565b6040805180820190915260608152600060208201528251821115611c9557600080fd5b8351516000611ca484836125b6565b90508560200151811115611cc157611cc186611bae8360026126e8565b855180518382016020019160009180851115611cdb578482525b505050602086015b60208610611d1b5780518252611cfa6020836125b6565b9150611d076020826125b6565b9050611d1460208761272f565b9550611ce3565b51815160001960208890036101000a0190811690199190911617905250849150509392505050565b8151611d4f83836116c0565b506103b78382611b45565b828054611d66906127a2565b90600052602060002090601f016020900481019282611d885760008555611dce565b82601f10611da157805160ff1916838001178555611dce565b82800160010185558215611dce579182015b82811115611dce578251825591602001919060010190611db3565b50611dda929150611e13565b5090565b6040518060400160405280611e06604051806040016040528060608152602001600081525090565b8152602001600081525090565b5b80821115611dda5760008155600101611e14565b600067ffffffffffffffff80841115611e4357611e4361285c565b8360051b6020611e54818301612532565b868152935080840185838101891015611e6c57600080fd5b60009350835b88811015611ea757813586811115611e88578586fd5b611e948b828b01611f1d565b8452509183019190830190600101611e72565b5050505050509392505050565b600082601f830112611ec557600080fd5b611b6683833560208501611e28565b60008083601f840112611ee657600080fd5b50813567ffffffffffffffff811115611efe57600080fd5b602083019150836020828501011115611f1657600080fd5b9250929050565b600082601f830112611f2e57600080fd5b8135611f41611f3c82612563565b612532565b818152846020838601011115611f5657600080fd5b816020850160208301376000918101602001919091529392505050565b803560018110611f8257600080fd5b919050565b803560028110611f8257600080fd5b803563ffffffff81168114611f8257600080fd5b803567ffffffffffffffff81168114611f8257600080fd5b600060208284031215611fd457600080fd5b8135611b6681612872565b600060208284031215611ff157600080fd5b8151611b6681612872565b6000806040838503121561200f57600080fd5b823561201a81612872565b946020939093013593505050565b60006020828403121561203a57600080fd5b5051919050565b60008060006060848603121561205657600080fd5b83359250602084013567ffffffffffffffff8082111561207557600080fd5b61208187838801611f1d565b9350604086013591508082111561209757600080fd5b506120a486828701611f1d565b9150509250925092565b6000602082840312156120c057600080fd5b815167ffffffffffffffff8111156120d757600080fd5b8201601f810184136120e857600080fd5b80516120f6611f3c82612563565b81815285602083850101111561210b57600080fd5b61211c826020830160208601612776565b95945050505050565b60008060008060008060008060a0898b03121561214157600080fd5b883567ffffffffffffffff8082111561215957600080fd5b6121658c838d01611ed4565b909a50985060208b013591508082111561217e57600080fd5b61218a8c838d01611ed4565b909850965060408b01359150808211156121a357600080fd5b818b0191508b601f8301126121b757600080fd5b8135818111156121c657600080fd5b8c60208260051b85010111156121db57600080fd5b6020830196508095505050506121f360608a01611faa565b915061220160808a01611f96565b90509295985092959890939650565b60006020828403121561222257600080fd5b813567ffffffffffffffff81111561223957600080fd5b6107be84828501611f1d565b6000806040838503121561225857600080fd5b823567ffffffffffffffff81111561226f57600080fd5b61227b85828601611f1d565b95602094909401359450505050565b600080600080608085870312156122a057600080fd5b843567ffffffffffffffff808211156122b857600080fd5b9086019060c082890312156122cc57600080fd5b6122d4612509565b6122dd83611f87565b81526122eb60208401611f87565b60208201526122fc60408401611f73565b604082015260608301358281111561231357600080fd5b61231f8a828601611f1d565b60608301525060808301358281111561233757600080fd5b6123438a828601611f1d565b60808301525060a08301358281111561235b57600080fd5b6123678a828601611eb4565b60a083015250955061237e91505060208601611faa565b925061238c60408601611f96565b9396929550929360600135925050565b6000602082840312156123ae57600080fd5b81516bffffffffffffffffffffffff81168114611b6657600080fd5b600081518084526123e2816020860160208601612776565b601f01601f19169290920160200192915050565b60008251612408818460208701612776565b9190910192915050565b6001600160a01b03841681528260208201526060604082015260006107bb60608301846123ca565b602081526000611b6660208301846123ca565b60408152600061246060408301856123ca565b828103602084015261211c81856123ca565b60408152600061248560408301856123ca565b90508260208301529392505050565b67ffffffffffffffff841681526060602082015260006124b760608301856123ca565b905063ffffffff83166040830152949350505050565b67ffffffffffffffff851681526080602082015260006124f060808301866123ca565b63ffffffff949094166040830152506060015292915050565b60405160c0810167ffffffffffffffff8111828210171561252c5761252c61285c565b60405290565b604051601f8201601f1916810167ffffffffffffffff8111828210171561255b5761255b61285c565b604052919050565b600067ffffffffffffffff82111561257d5761257d61285c565b50601f01601f191660200190565b60006001600160a01b038083168185168083038211156125ad576125ad61281a565b01949350505050565b600082198211156125c9576125c961281a565b500190565b600181815b808511156126095781600019048211156125ef576125ef61281a565b808516156125fc57918102915b93841c93908002906125d3565b509250929050565b6000611b66838360008261262757506001610542565b8161263457506000610542565b816001811461264a576002811461265457612670565b6001915050610542565b60ff8411156126655761266561281a565b50506001821b610542565b5060208310610133831016604e8410600b8410161715612693575081810a610542565b61269d83836125ce565b80600019048211156126b1576126b161281a565b029392505050565b60006001600160a01b03808316818516818304811182151516156126df576126df61281a565b02949350505050565b60008160001904831182151516156127025761270261281a565b500290565b60006001600160a01b03838116908316818110156127275761272761281a565b039392505050565b6000828210156127415761274161281a565b500390565b600060ff821660ff8416808210156127605761276061281a565b90039392505050565b6000611b66368484611e28565b60005b83811015612791578181015183820152602001612779565b838111156103b75750506000910152565b600181811c908216806127b657607f821691505b602082108114156127d757634e487b7160e01b600052602260045260246000fd5b50919050565b60006000198214156127f1576127f161281a565b5060010190565b60008261281557634e487b7160e01b600052601260045260246000fd5b500690565b634e487b7160e01b600052601160045260246000fd5b634e487b7160e01b600052602160045260246000fd5b634e487b7160e01b600052603260045260246000fd5b634e487b7160e01b600052604160045260246000fd5b6001600160a01b03811681146107d757600080fdfea2646970667358221220f780cfe5d27350596a8a92bc7cf190550bad29bd456d426fec2fd63c3690135664736f6c63430008070033",
  "linkReferences": {},
  "deployedLinkReferences": {}
}